:100000000C9462000C948A000C948A000C948A0070
:100010000C948A000C948A000C948A000C948A0038
:100020000C948A000C948A000C948A000C948A0028
:100030000C948A000C948A000C948A000C948A0018
:100040000C9488020C948A000C94F8020C94D2024E
:100050000C948A000C948A000C948A000C948A00F8
:100060000C948A000C948A000000000023002600F3
:10007000290000000000240027002A0000000000E2
:10008000250028002B0004040404040404040202D4
:100090000202020203030303030301020408102007
:1000A0004080010204081020010204081020000012
:1000B0000008000201000003040700000000000027
:1000C0000000380411241FBECFEFD8E0DEBFCDBF43
:1000D00011E0A0E0B1E0EEE9F9E002C005900D9278
:1000E000A231B107D9F721E0A2E1B1E001C01D9230
:1000F000A13CB207E1F710E0C2E6D0E004C02197CE
:10010000FE010E94C704C136D107C9F70E942A0325
:100110000C94CD040C940000833081F028F48130DD
:1001200099F08230A9F008958730A9F08830C9F09D
:100130008430B1F4809180008F7D03C08091800075
:100140008F7780938000089584B58F7784BD08955C
:1001500084B58F7DFBCF8091B0008F778093B00006
:1001600008958091B0008F7DF9CF1F93CF93DF93D7
:10017000E0EBF0E09491ECE9F0E0D491E8E8F0E015
:10018000C491CC23B9F0182F992319F0892F0E941C
:100190008C00EC2FF0E0EE0FFF1FE458FF4FA5910D
:1001A000B4918FB7F894EC91111108C0D095DE236B
:1001B000DC938FBFDF91CF911F910895DE2BF8CF95
:1001C000CF93DF9390E0FC01E656FF4F24918A57CE
:1001D0009F4FFC0184918823D1F090E0880F991FF4
:1001E000FC01EE58FF4FA591B491FC01E458FF4F7C
:1001F000C591D49161110EC09FB7F8948C91E22FF4
:10020000E0958E238C932881E223E8839FBFDF91C2
:10021000CF9108958FB7F894EC91E22BEC938FBFB8
:10022000F6CF8E50806480937C0080917A00806449
:1002300080937A0080917A0086FDFCCF80917800CF
:100240009091790008953FB7F8948091BD01909105
:10025000BE01A091BF01B091C00126B5A89B05C009
:100260002F3F19F00196A11DB11D3FBFBA2FA92F35
:10027000982F8827BC01CD01620F711D811D911D32
:1002800042E0660F771F881F991F4A95D1F708959E
:100290008F929F92AF92BF92CF92DF92EF92FF9296
:1002A0006B017C010E9423014B015C01C114D1044C
:1002B000E104F104B9F00E942301681979098A095F
:1002C0009B09683E73408105910580F321E0C21AC5
:1002D000D108E108F10888EE880E83E0981EA11C81
:1002E000B11CE4CFFF90EF90DF90CF90BF90AF9024
:1002F0009F908F900895AF92BF92CF92DF92EF922E
:10030000FF920F931F93CF93DF936C017B018B01BF
:10031000040F151FEB015E01AE18BF08C017D1070F
:1003200059F06991D601ED91FC910190F081E02D99
:10033000C6010995892B79F7C501DF91CF911F91EE
:100340000F91FF90EF90DF90CF90BF90AF90089506
:10035000FC01538D448D252F30E0842F90E0821BCB
:10036000930B541710F0CF96089501970895FC0150
:10037000918D828D981761F0A28DAE0FBF2FB11DA8
:100380005D968C91928D9F5F9F73928F90E0089500
:100390008FEF9FEF0895FC01918D828D981731F0BA
:1003A000828DE80FF11D858D90E008958FEF9FEF0E
:1003B0000895FC01918D228D892F90E0805C9F4FE4
:1003C000821B91098F739927089582E191E00E9421
:1003D000D90121E0892B09F420E0822F089580E0E3
:1003E00090E0892B29F00E94E50181110C94000016
:1003F0000895FC01A48DA80FB92FB11DA35ABF4FBA
:100400002C91848D90E001968F739927848FA68913
:10041000B7892C93A089B1898C91837080648C9367
:10042000938D848D981306C00288F389E02D808116
:100430008F7D80830895EF92FF920F931F93CF9348
:10044000DF93EC0181E0888F9B8D8C8D98131AC00F
:10045000E889F989808185FF15C09FB7F894EE89F6
:10046000FF896083E889F989808183708064808353
:100470009FBF81E090E0DF91CF911F910F91FF909E
:10048000EF900895F62E0B8D10E00F5F1F4F0F7346
:100490001127E02E8C8D8E110CC00FB607FCFACF01
:1004A000E889F989808185FFF5CFCE010E94F901A5
:1004B000F1CFEB8DEC0FFD2FF11DE35AFF4FF082D2
:1004C0009FB7F8940B8FEA89FB8980818062CFCF38
:1004D000CF93DF93EC01888D8823B9F0AA89BB897B
:1004E000E889F9898C9185FD03C0808186FD0DC066
:1004F0000FB607FCF7CF8C9185FFF2CF808185FF87
:10050000EDCFCE010E94F901E9CFDF91CF9108959F
:100510001F920F920FB60F9211242F933F938F9338
:100520009F93AF93BF938091B9019091BA01A0912D
:10053000BB01B091BC013091B80123E0230F2D37EE
:1005400058F50196A11DB11D2093B8018093B90102
:100550009093BA01A093BB01B093BC018091BD01FF
:100560009091BE01A091BF01B091C0010196A11D63
:10057000B11D8093BD019093BE01A093BF01B093C4
:10058000C001BF91AF919F918F913F912F910F909B
:100590000FBE0F901F90189526E8230F0296A11DFD
:1005A000B11DD2CF1F920F920FB60F9211242F932D
:1005B0003F934F935F936F937F938F939F93AF93EB
:1005C000BF93EF93FF9382E191E00E94F901FF91C5
:1005D000EF91BF91AF919F918F917F916F915F91BB
:1005E0004F913F912F910F900FBE0F901F90189534
:1005F0001F920F920FB60F9211242F938F939F93F8
:10060000EF93FF93E0912201F09123018081E0912B
:100610002801F091290182FD1BC0908180912B015E
:100620008F5F8F7320912C01821741F0E0912B0195
:10063000F0E0EE5EFE4F958F80932B01FF91EF91DE
:100640009F918F912F910F900FBE0F901F90189533
:100650008081F4CF789484B5826084BD84B5816054
:1006600084BD85B5826085BD85B5816085BD80917D
:100670006E00816080936E001092810080918100F5
:1006800082608093810080918100816080938100ED
:10069000809180008160809380008091B1008460AF
:1006A0008093B1008091B00081608093B000809110
:1006B0007A00846080937A0080917A0082608093CF
:1006C0007A0080917A00816080937A0080917A002C
:1006D000806880937A001092C100E0912201F0912D
:1006E000230182E08083E0911E01F0911F011082BE
:1006F000E0912001F09121018FEC808310922A017A
:10070000E0912601F091270186E08083E0912401A9
:10071000F0912501808180618083E0912401F09136
:100720002501808188608083E0912401F09125017A
:10073000808180688083E0912401F091250180818F
:100740008F7D808361E082E00E94E00060E082E1D2
:100750000E94E00060E083E10E94E00060E081E14F
:100760000E94E000CC24CA9493E0D92EE12CF12C15
:1007700007E910E0C0E0D0E082E10E94110128E02A
:1007800037E0DC010E94C004A70196010E946504C5
:10079000285F384F4F4F5F4FA8EEB3E00E948404AC
:1007A0004B015C018092AF019092B001A092B10127
:1007B000B092B20183E10E94110129E030E0DC0136
:1007C0000E94C004A70196010E9465042F5F3F4F5D
:1007D0004F4F5F4FA8EEB3E00E9484042B013C0111
:1007E0004092B3015092B4016092B5017092B6018B
:1007F000EFEBF0E08491EBEAF0E02490F801349024
:10080000332099F181110E948C00E32DF0E0EE0F6E
:10081000FF1FE859FF4FA591B4918C91282231E038
:1008200020E009F430E0832F922FF1E08F278170D0
:100830008093B701882371F081E00E94B500C30165
:10084000B2010E94480180E00E94B500C501B401D8
:100850000E944801209709F48FCF0E94E501882368
:1008600009F48ACF0E94000087CF90E080E0DDCFBE
:10087000E2E1F1E01382128288EE93E0A0E0B0E0C2
:1008800084839583A683B78384E091E091838083FA
:1008900085EC90E09587848784EC90E09787868745
:1008A00080EC90E0918B808B81EC90E0938B828B3D
:1008B00082EC90E0958B848B86EC90E0978B868B16
:1008C000118E128E138E148E0895052E97FB1EF432
:1008D00000940E947C0457FD07D00E948F0407FCFF
:1008E00003D04EF40C947C0450954095309521959E
:1008F0003F4F4F4F5F4F089590958095709561954C
:100900007F4F8F4F9F4F08950E94B104A59F900D78
:10091000B49F900DA49F800D911D11240895A1E214
:100920001A2EAA1BBB1BFD010DC0AA1FBB1FEE1F69
:10093000FF1FA217B307E407F50720F0A21BB30BB4
:10094000E40BF50B661F771F881F991F1A9469F730
:1009500060957095809590959B01AC01BD01CF018C
:100960000895A29FB001B39FC001A39F700D811D88
:100970001124911DB29F700D811D1124911D0895A8
:100980000E94B104B7FF0895821B930B0895EE0FE8
:0E099000FF1F0590F491E02D0994F894FFCF1D
:10099E00000000001B027B01A8016802D901B7010B
:0209AE00CB017B
:00000001FF
